:100000000C94DF000C9407010C9407010C94070179
:100010000C9407010C9407010C9407010C94070140
:100020000C9407010C9407010C9407010C94070130
:100030000C9407010C9407010C9407010C94070120
:100040000C944A040C9407010C9418040C94F203C9
:100050000C9407010C9407010C9407010C94070100
:100060000C9407010C94070100407A10F35A00A089
:10007000724E18090010A5D4E80000E87648170071
:1000800000E40B54020000CA9A3B000000E1F505B1
:10009000000080969800000040420F000000A086FB
:1000A00001000000102700000000E803000000002D
:1000B0006400000000000A000000000001000000D1
:1000C00000002C76D888DC674F0823DFC1DFAE59EB
:1000D000E1B1B796E5E3E453C63AE651997696E87E
:1000E000E6C28426EB898C9B62ED407C6FFCEFBC02
:1000F0009C9F40F2BAA56FA5F490055A2AF75C932D
:100100006B6CF9676DC11BFCE0E40D47FEF520E662
:10011000B500D0ED902E0300943577050080841E45
:10012000080000204E0A000000C80C333333330FA0
:10013000986E12831141EF8D2114893BE65516CF3D
:10014000FEE6DB18D1844B381BF77C1D901DA4BB49
:10015000E424203284725E228100C9F124ECA1E5FE
:100160003D2700000000240027002A0000000000B6
:1001700023002600290000000000250028002B0095
:10018000040404040404040402020202020203033D
:100190000303030301020408102040800102040845
:1001A00010200102040810200000000800020100D5
:1001B0000003040700000000000000009404112464
:1001C0001FBECFEFD8E0DEBFCDBF22E0A6E5B1E095
:1001D00001C01D92A035B207E1F711E0A0E0B1E047
:1001E000E2E2FDE102C005900D92A635B107D9F714
:1001F00010E0CFEDD0E004C02197FE010E94E30B98
:10020000CE3DD107C9F70E94D3040C948F0E0C94F5
:100210000000EBE6F1E0A089B18982E08C93A4852F
:10022000B5851C92A685B7858FEC8C93108EA4891A
:10023000B58986E08C93A289B3898C9180618C9377
:10024000A289B3898C9188608C93A289B3898C919F
:1002500080688C930288F389E02D80818F7D808374
:100260000895CF92DF92EF92FF920F931F93CF9357
:10027000DF936C017A018B01C0E0D0E0CE15DF0581
:1002800089F0D8016D918D01D601ED91FC9101901D
:10029000F081E02DC6010995892B11F47E0102C081
:1002A0002196ECCFC701DF91CF911F910F91FF9065
:1002B000EF90DF90CF900895089580E090E008954A
:1002C000FC01538D448D252F30E0842F90E0821B5C
:1002D000930B541710F0CF96089501970895FC01E1
:1002E000918D828D981761F0828DDF01A80FB11D6D
:1002F0005D968C91928D9F5F9F73928F90E0089591
:100300008FEF9FEF0895FC01918D828D981731F04A
:10031000828DE80FF11D858D90E008958FEF9FEF9E
:100320000895FC01918D228D892F90E0805C9F4F74
:10033000821B91098F73992708958BE691E00E94A3
:10034000910121E0892B09F420E0822F0895FC011E
:10035000848DDF01A80FB11DA35ABF4F2C91848D4E
:1003600090E001968F739927848FA689B7892C9383
:10037000A089B1898C9180648C93938D848D98131E
:1003800006C00288F389E02D80818F7D80830895E7
:10039000EF92FF920F931F93CF93DF93EC0181E0D5
:1003A000888F9B8D8C8D981305C0E889F989808191
:1003B00085FD24C0F62E0B8D10E00F5F1F4F0F73CD
:1003C0001127E02E8C8DE8120CC00FB607FCFACF77
:1003D000E889F989808185FFF5CFCE010E94A701C8
:1003E000F1CF8B8DFE01E80FF11DE35AFF4FF08234
:1003F0000B8FEA89FB898081806207C0EE89FF89C3
:100400006083E889F98980818064808381E090E05D
:10041000DF91CF911F910F91FF90EF900895CF93AF
:10042000DF93EC01888D8823C9F0EA89FB898081FC
:1004300085FD05C0A889B9898C9186FD0FC00FB6CE
:1004400007FCF5CF808185FFF2CFA889B9898C910F
:1004500085FFEDCFCE010E94A701E7CFDF91CF91BD
:10046000089580E090E0892B29F00E949D01811180
:100470000C9400000895833081F028F4813099F0C5
:100480008230A1F008958730A9F08830B9F0843027
:10049000D1F4809180008F7D03C0809180008F77A0
:1004A00080938000089584B58F7702C084B58F7DD6
:1004B00084BD08958091B0008F7703C08091B00013
:1004C0008F7D8093B00008951F93CF93DF93EBEA65
:1004D000F1E09491E7E9F1E0D491E3E8F1E0C4912F
:1004E000CC23D9F0182F992319F0892F0E943B02B1
:1004F000EC2FF0E0EE0FFF1FEA58FE4FA591B491EC
:100500008FB7F894111105C09C91ED2FE095E92368
:1005100002C0EC91ED2BEC938FBFDF91CF911F9137
:100520000895CF93DF93EAEAF1E08491E6E9F1E000
:10053000D491E2E8F1E0C491CC2391F081110E94C2
:100540003B02EC2FF0E0EE0FFF1FE459FE4FA591A8
:10055000B491EC91ED2381E090E021F480E002C0C1
:1005600080E090E0DF91CF9108952FB7F8946091EB
:100570005B0170915C0180915D0190915E012FBFE4
:1005800008958F929F92AF92BF92CF92DF92EF9297
:10059000FF926B017C010E94B5024B015C01C60E0B
:1005A000D71EE81EF91E0E94B502681579058A0556
:1005B0009B0528F0C616D706E806F906A0F7FF90B7
:1005C000EF90DF90CF90BF90AF909F908F90089565
:1005D000CF92DF92EF92FF920F931F93CF93DF930F
:1005E0000E949102892BE1F783E290E00197F1F7F5
:1005F000C8E1D0E0C12CD12C76010FE010E081E001
:100600000E946402C8010197F1F780E00E94640231
:10061000C8010197F1F7CC0CDD1CEE1CFF1C0E94F9
:100620009102AC01990F660B770BC42AD52AE62AF2
:10063000F72A219721F781E00E946402C3E2D0E00B
:10064000CE010197F1F780E00E9464022197F1F753
:10065000C701B6018058DF91CF911F910F91FF9094
:10066000EF90DF90CF900895AF92BF92CF92DF923C
:10067000EF92FF920F931F93CF93C82F0E94E8022F
:1006800000E010E0C12CD12C7601AC2E0C2E000C19
:10069000BB080A151B054CF40E94E802C60ED71EC3
:1006A000E81EF91E0F5F1F4FF4CF2C2FCC0F330B1A
:1006B000440B550BC701B6010E94C40BCA01B90116
:1006C0000E94930923EF3EE849E850E40E94CE09D6
:1006D00020E030E040E853E30E94CE0921E43BED06
:1006E00049E956E30E94520BCF911F910F91FF9061
:1006F000EF90DF90CF90BF90AF9008950E94E90BEC
:100700006115710579F0FB0101900020E9F731973F
:10071000AF01461B570BDC01ED91FC910280F38188
:10072000E02D099480E090E008954F925F926F92DF
:100730007F92EF92FF920F931F93CF93DF93CDB7EA
:10074000DEB7A1970FB6F894DEBF0FBECDBF7C0118
:10075000FA01CB0119A2223008F42AE08E010F5DC4
:100760001F4F422E512C612C712CBF01A30192010D
:100770000E948C0AF901CA01015011096A3014F46F
:10078000605D01C0695CD8016C93232B242B252B61
:1007900061F7B801C7010E948003A1960FB6F894D3
:1007A000DEBF0FBECDBFDF91CF911F910F91FF90A4
:1007B000EF907F906F905F904F9008950F931F93ED
:1007C000CF93DF93EC010E9480038C0161E271E022
:1007D000CE010E948003800F911FDF91CF911F9166
:1007E0000F9108951F920F920FB60F9211242F931D
:1007F0003F934F935F936F937F938F939F93AF93A9
:10080000BF93EF93FF938BE691E00E94A701FF91C6
:10081000EF91BF91AF919F918F917F916F915F9178
:100820004F913F912F910F900FBE0F901F901895F1
:100830001F920F920FB60F9211242F938F939F93B5
:10084000EF93FF93E0917B01F0917C018081E09137
:100850008101F091820182FD12C09081809184011A
:100860008F5F8F7320918501821751F0E091840191
:10087000F0E0E559FE4F958F8093840101C080819F
:10088000FF91EF919F918F912F910F900FBE0F903D
:100890001F9018951F920F920FB60F9211242F934D
:1008A0003F938F939F93AF93BF9380915B01909100
:1008B0005C01A0915D01B0915E0130915A0123E08D
:1008C000230F2D3720F40196A11DB11D05C026E888
:1008D000230F0296A11DB11D20935A0180935B0145
:1008E00090935C01A0935D01B0935E0180915601ED
:1008F00090915701A0915801B09159010196A11D05
:10090000B11D8093560190935701A0935801B09365
:100910005901BF91AF919F918F913F912F910F906E
:100920000FBE0F901F901895EBE6F1E01382128234
:1009300088EE93E0A0E0B0E084839583A683B7833C
:1009400084E091E09183808385EC90E095878487B3
:1009500084EC90E09787868780EC90E0918B808B89
:1009600081EC90E0938B828B82EC90E0958B848B72
:1009700086EC90E0978B868B118E128E138E148EE0
:10098000E8E0F2E01682178210861186128613863E
:100990001486158616861786108A118A128A138A7B
:1009A000148A158A0895CF93DF93CDB7DEB7A89741
:1009B0000FB6F894DEBF0FBECDBF789484B58260C9
:1009C00084BD84B5816084BD85B5826085BD85B5F3
:1009D000816085BD80916E00816080936E00109271
:1009E00081008091810082608093810080918100EC
:1009F000816080938100809180008160809380007D
:100A00008091B10084608093B1008091B0008160DA
:100A10008093B00080917A00846080937A00809106
:100A20007A00826080937A0080917A00816080935E
:100A30007A0080917A00806880937A001092C100D9
:100A400010924C0210924D0210924E0210924F02E0
:100A500010920A0210920B0210920C0210920D02D8
:100A600068EB7BE080E090E00E94C1028BE691E0C1
:100A700090934B0280934A020E9409010E94B502A2
:100A800060930A0270930B0280930C0290930D0204
:100A900062E171E080914A0290914B020E948003D2
:100AA0006AE070E080E090E00E94C10281E0809303
:100AB0001E020E94090164E271E08BE691E00E944F
:100AC000DE03E7E9F1E02491E3E8F1E08491882393
:100AD00099F090E0880F991FFC01EE59FE4FA59107
:100AE000B491FC01EA58FE4F859194918FB7F89428
:100AF000EC91E22BEC938FBFE6E9F1E02491E2E880
:100B0000F1E084918823C9F090E0880F991FFC01DF
:100B1000EE59FE4F45915491FC01EA58FE4FA591C4
:100B2000B4919FB7F894FA01808120958223808345
:100B30008C91E22FE823EC939FBF81E00E94640236
:100B40000BE811E0C8010197F1F780E00E94640210
:100B5000C8010197F1F78EE10E94340360935F01B1
:100B600070936001809361019093620184EF882EFD
:100B700099249394A12CB12C7E01F5E1EF0EF11C88
:100B80000E94B502672B682B692B41F40E94B502C5
:100B9000623071058105910508F404C10E94B50217
:100BA00060936701709368018093690190936A0173
:100BB00000916301109164012091650130916601FB
:100BC000601771078207930740F460936301709385
:100BD0006401809365019093660100916301109117
:100BE000640120916501309166012B013C01401A9E
:100BF000510A620A730A930182010A3F1105210515
:100C0000310508F4CFC06093630170936401809351
:100C10006501909366018092160290921702A0924D
:100C20001802B092190210921A0210921B0210922E
:100C30001C0210921D0280910E0290910F02A09151
:100C40001002B09111028093120290931302A093AC
:100C50001402B09315020E94B50260930E027093C5
:100C60000F0280931002909311020E94B5026093CC
:100C70000A0270930B0280930C0290930D020E9463
:100C8000B5022B013C0162E371E080914A02909130
:100C90004B020E9480032AE041E050E060E070E0F7
:100CA00080914A0290914B020E94950369E371E0A2
:100CB00080914A0290914B020E9480032AE0B30186
:100CC000A20180914A0290914B020E9495036BE32E
:100CD00071E080914A0290914B020E9480038091C2
:100CE0000E0290910F02A0911002B0911102B30177
:100CF000A201481B590B6A0B7B0B2AE080914A0228
:100D000090914B020E9495036BE371E080914A023F
:100D100090914B020E94800340910E0250910F026D
:100D20006091100270911102809112029091130251
:100D3000A0911402B0911502481B590B6A0B7B0B52
:100D40002AE080914A0290914B020E9495036DE344
:100D500071E080914A0290914B020E9480030E94B0
:100D6000B502AB01BC012AE080914A0290914B028E
:100D70000E9495036FE371E080914A0290914B02CB
:100D80000E94DE0365E070E080E090E00E94C10216
:100D90000E94B50260930E0270930F0280931002BE
:100DA0009093110285E00E9434031B012C010E94E4
:100DB000E802D62EC72E782E692E20915F01309141
:100DC00060014091610150916201C201B1010E9434
:100DD000E50A8E010F5F1F4F23E045E00E940B07DD
:100DE0006F927F92CF92DF929F938F93A6E4B1E0B0
:100DF000BF93AF93FF92EF920E94EE0BB7018BE689
:100E000091E00E94DE030FB6F894DEBF0FBECDBFA7
:100E10000E943102B5CEEF920F931F93CF93DF93D1
:100E2000E80147FD02C034E001C034E1E42F440F83
:100E3000FF0BF7FF03C0F195E195F109E32E022FB7
:100E40002E2FAE010E942B07CE01DF91CF911F9173
:100E50000F91EF9008954F925F926F927F929F92C1
:100E6000AF92BF92CF92DF92EF92FF920F931F93B8
:100E7000CF93DF93CDB7DEB729970FB6F894DEBFD7
:100E80000FBECDBF6A01122FB02E2BE3201720F02A
:100E9000FF24F394F00E02C0BCE3FB2E0F2D27E0DD
:100EA000AE014F5F5F4F0E94B908AC018981982F56
:100EB0009970913031F0E1FC06C0E0FE06C090E28E
:100EC00005C09DE203C09BE201C090E0EE2DE07101
:100ED00083FF3CC0911102C083E001C084E0811710
:100EE00018F4212F281B01C020E0E1110BC0F601EE
:100EF000822F30E2882319F031938150FBCFC20E4C
:100F0000D11C20E0992329F0D6019C93F60131965B
:100F10006F01C6010396E2FE0AC03EE4D6013C938F
:100F200041E411964C93119712963C9306C03EE60D
:100F3000F601308341E641833283FC01322F40E2E7
:100F4000332309F442C041933150FACF82FF44C0A9
:100F5000911102C083E001C084E0811718F4212FB1
:100F6000281B01C020E0E1110BC0F601822F30E206
:100F7000882319F031938150FBCFC20ED11C20E0A1
:100F8000992329F0D6019C93F60131966F01C60191
:100F90000396E2FE0BC039E4D6013C933EE4119681
:100FA0003C93119736E412963C9307C039E6F6015C
:100FB00030833EE6318336E63283FC01322F40E255
:100FC000332319F041933150FBCFFC01E20FF11DA7
:100FD00010828EEF9FEFB7C0F1E0911101C0F0E0F9
:100FE0006F2F70E01416150624F49A012F5F3F4FFF
:100FF00002C021E030E0260F371FBB2029F06B2D07
:1010000070E06F5F7F4F02C060E070E0260F371F17
:10101000612F70E0261737071CF4121B212F01C027
:1010200020E03E2D387159F4D601322F60E233238F
:1010300019F06D933150FBCFC20ED11C20E0FF237D
:1010400031F0D6019C93B6016F5F7F4F6B01E111C8
:101050000BC0F601922F30E3992319F03193915090
:10106000FBCFC20ED11C20E09F2D940F3A81782F28
:101070007071A72E84FF03C0313309F49150191603
:1010800024F4993018F098E001C091E0E42F852F06
:1010900057FF02C0E0E080E06E2F782FE0E0F0E044
:1010A000AEE29A2E3A01691A71082A01461A570AC5
:1010B0000B2D10E01195019511096F3F8FEF780707
:1010C00029F4D6019C92C60101966C014617570778
:1010D00084F0661677066CF47F01E40CF51CA1E041
:1010E000B0E0AC0FBD1FEA0EFB1ED7011196BC90FD
:1010F00002C090E3B92E615071093196C601019684
:101100007C016017710724F0D601BC926C01D5CF29
:101110006417750741F4363320F4353321F4A110F8
:1011200002C081E3B82EF601B082F701822F90E26F
:10113000882319F091938150FBCFF701E20FF11D45
:10114000108280E090E029960FB6F894DEBF0FBEC3
:10115000CDBFDF91CF911F910F91FF90EF90DF9066
:10116000CF90BF90AF909F907F906F905F904F9087
:101170000895283008F027E03327DA01990F311D50
:1011800087FD916000966105710539F432602E5F2C
:101190003D9330E32A95E1F708959F3F30F0803882
:1011A0007105610509F03C5F3C5F3D93913008F0AB
:1011B0008068911DDF93CF931F930F93FF92EF925F
:1011C000192F987F9695E92F96959695E90FFF2709
:1011D000EE53FF4F99273327EE24FF24A701E701A1
:1011E00005900894079428F4360FE71EF81E491F4F
:1011F000511D660F771F881F991F0694A1F7059050
:10120000079428F4E70EF81E491F561FC11D770FDB
:10121000881F991F661F0694A1F70590079428F46C
:10122000F80E491F561FC71FD11D880F991F661F33
:10123000771F0694A1F70590079420F4490F561FD5
:10124000C71FD81F990F661F771F881F0694A9F71D
:1012500084911095177041F0D695C795579547958D
:10126000F794E7941A95C1F7E8E6F0E068941590D2
:10127000159135916591959105907FE27395E118EF
:10128000F10A430B560BC90BD009C0F7E10CF11E54
:10129000431F561FC91FD01D7EF4703311F48A9569
:1012A000E6CFE894015030F0080F0AF40027021747
:1012B00008F4202F2395022F7A3328F079E37D93C9
:1012C0002A95E9F710C07D932A9589F6069497959B
:1012D0006795379517951794E118F10A430B560B4C
:1012E000C90BD00998F023957E9173957A3308F055
:1012F00070E37C932013B8F77E9170617D9330F09A
:10130000839571E37D9370E32A95E1F71124EF90C3
:10131000FF900F911F91CF91DF91992787FD9095B5
:101320000895E89409C097FB3EF4909580957095D8
:1013300061957F4F8F4F9F4F9923A9F0F92F96E921
:10134000BB279395F695879577956795B795F11196
:10135000F8CFFAF4BB0F11F460FF1BC06F5F7F4F33
:101360008F4F9F4F16C0882311F096E911C0772345
:1013700021F09EE8872F762F05C0662371F096E84E
:10138000862F70E060E02AF09A95660F771F881F1D
:10139000DAF7880F9695879597F908950E94E109E5
:1013A0000C94520A0E94440A38F00E944B0A20F022
:1013B000952311F00C943B0A0C94410A11240C94CF
:1013C000860A0E94630A70F3959FC1F3950F50E05F
:1013D000551F629FF001729FBB27F00DB11D639FE7
:1013E000AA27F00DB11DAA1F649F6627B00DA11D8D
:1013F000661F829F2227B00DA11D621F739FB00D33
:10140000A11D621F839FA00D611D221F749F3327A2
:10141000A00D611D231F849F600D211D822F762F3B
:101420006A2F11249F5750409AF0F1F088234AF018
:10143000EE0FFF1FBB1F661F771F881F9150504084
:10144000A9F79E3F510580F00C943B0A0C94860A44
:101450005F3FE4F3983ED4F3869577956795B7950B
:10146000F795E7959F5FC1F7FE2B880F911D969525
:10147000879597F9089597F99F6780E870E060E095
:1014800008959FEF80EC089500240A94161617061D
:1014900018060906089500240A9412161306140665
:1014A00005060895092E0394000C11F4882352F0C8
:1014B000BB0F40F4BF2B11F460FF04C06F5F7F4F80
:1014C0008F4F9F4F089557FD9058440F551F59F067
:1014D0005F3F71F04795880F97FB991F61F09F3F21
:1014E00079F087950895121613061406551FF2CF4A
:1014F0004695F1DF08C0161617061806991FF1CF9A
:1015000086957105610508940895E894BB276627C0
:101510007727CB0197F90895A1E21A2EAA1BBB1BCE
:10152000FD010DC0AA1FBB1FEE1FFF1FA217B307AF
:10153000E407F50720F0A21BB30BE40BF50B661FC5
:10154000771F881F991F1A9469F760957095809589
:1015500090959B01AC01BD01CF0108952F923F9260
:101560004F925F926F927F928F929F92AF92BF92B3
:10157000CF92DF92EF92FF920F931F93CF93DF935F
:10158000CDB7DEB7CA1BDB0B0FB6F894DEBF0FBEBC
:10159000CDBF09942A88398848885F846E847D8409
:1015A0008C849B84AA84B984C884DF80EE80FD800B
:1015B0000C811B81AA81B981CE0FD11D0FB6F89481
:1015C000DEBF0FBECDBFED0108955058BB27AA273F
:1015D0000E94FD0A0C94520A0E94440A38F00E94AC
:1015E0004B0A20F039F49F3F19F426F40C94410A79
:1015F0000EF4E095E7FB0C943B0AE92F0E94630A86
:1016000058F3BA17620773078407950720F079F437
:10161000A6F50C94850A0EF4E0950B2EBA2FA02D9A
:101620000B01B90190010C01CA01A0011124FF278F
:10163000591B99F0593F50F4503E68F11A16F0408A
:10164000A22F232F342F4427585FF3CF4695379589
:101650002795A795F0405395C9F77EF41F16BA0B4E
:10166000620B730B840BBAF09150A1F0FF0FBB1FFC
:10167000661F771F881FC2F70EC0BA0F621F731F45
:10168000841F48F4879577956795B795F7959E3FA2
:1016900008F0B0CF9395880F08F09927EE0F979533
:1016A000879508950E94660B0C94520A0E944B0A7B
:1016B00058F00E94440A40F029F45F3F29F00C944E
:1016C0003B0A51110C94860A0C94410A0E94630A49
:1016D00068F39923B1F3552391F3951B550BBB2761
:1016E000AA2762177307840738F09F5F5F4F220FA6
:1016F000331F441FAA1FA9F335D00E2E3AF0E0E89D
:1017000032D091505040E695001CCAF72BD0FE2FE6
:1017100029D0660F771F881FBB1F2617370748077A
:10172000AB07B0E809F0BB0B802DBF01FF27935832
:101730005F4F3AF09E3F510578F00C943B0A0C94B1
:10174000860A5F3FE4F3983ED4F3869577956795D4
:10175000B795F7959F5FC9F7880F911D9695879567
:1017600097F90895E1E0660F771F881FBB1F621786
:1017700073078407BA0720F0621B730B840BBA0B44
:10178000EE1F88F7E0950895052E97FB1EF4009450
:101790000E94DB0B57FD07D00E948C0A07FC03D088
:1017A0004EF40C94DB0B50954095309521953F4FAE
:1017B0004F4F5F4F089590958095709561957F4F3D
:1017C0008F4F9F4F0895EE0FFF1F0590F491E02D6E
:1017D000099481E090E0F8940C948F0EAEE0B0E0B4
:1017E000E4EFFBE00C94BC0A0D891E8986E08C8333
:1017F0001A8309838FEF9FE79E838D83AE01475E37
:101800005F4F6F89788DCE0101960E94110C2F8158
:101810003885F801E20FF31F10822E96E4E00C9455
:10182000D80AACE0B0E0E7E1FCE00C94AE0A7C0141
:101830006B018A01FC0117821682838181FFBDC181
:10184000CE0101964C01F7019381F60193FD85913C
:1018500093FF81916F01882309F4ABC1853239F47C
:1018600093FD859193FF81916F01853229F4B70132
:1018700090E00E94F90DE7CF512C312C20E020326E
:10188000A0F48B3269F030F4803259F0833269F47D
:1018900020612CC08D3239F0803339F4216026C0AC
:1018A0002260246023C0286021C027FD27C030EDBE
:1018B000380F3A3078F426FF06C0FAE05F9E300D0C
:1018C0001124532E13C08AE0389E300D1124332E7C
:1018D00020620CC08E3221F426FD6BC1206406C04C
:1018E0008C3611F4206802C0883641F4F60193FD6D
:1018F000859193FF81916F018111C1CF982F9F7DB9
:101900009554933028F40C5F1F4FFFE3F9830DC00B
:10191000833631F0833771F0833509F05BC022C024
:10192000F801808189830E5F1F4F44244394512C1A
:10193000540115C03801F2E06F0E711CF801A0804F
:10194000B18026FF03C0652D70E002C06FEF7FEF0E
:10195000C5012C870E94EE0D2C0183012C852F7769
:10196000222E17C03801F2E06F0E711CF801A08022
:10197000B18026FF03C0652D70E002C06FEF7FEFDE
:10198000C5012C870E94E30D2C012C852068222E96
:10199000830123FC1BC0832D90E048165906B0F448
:1019A000B70180E290E00E94F90D3A94F4CFF5017E
:1019B00027FC859127FE81915F01B70190E00E948D
:1019C000F90D31103A94F1E04F1A510841145104C5
:1019D00071F7E5C0843611F0893639F5F80127FF33
:1019E00007C060817181828193810C5F1F4F08C0A5
:1019F00060817181072E000C880B990B0E5F1F4FC1
:101A00002F76722E97FF09C09095809570956195FD
:101A10007F4F8F4F9F4F2068722E2AE030E0A40145
:101A20000E94310EA82EA81844C0853729F42F7EB5
:101A3000B22E2AE030E025C0F22FF97FBF2E8F367C
:101A4000C1F018F4883579F0B4C0803719F08837C0
:101A500021F0AFC02F2F2061B22EB4FE0DC08B2D10
:101A60008460B82E09C024FF0AC09F2F9660B92E4B
:101A700006C028E030E005C020E130E002C020E1EF
:101A800032E0F801B7FE07C06081718182819381E5
:101A90000C5F1F4F06C06081718180E090E00E5F97
:101AA0001F4FA4010E94310EA82EA818FB2DFF770E
:101AB0007F2E76FE0BC0372D3E7FA51450F474FEAA
:101AC0000AC072FC08C0372D3E7E05C0BA2C372DE7
:101AD00003C0BA2C01C0B52C34FF0DC0FE01EA0DC5
:101AE000F11D8081803311F4397E09C032FF06C0B8
:101AF000B394B39404C0832F867809F0B39433FD74
:101B000013C030FF06C05A2CB31418F4530C5B18E2
:101B1000B32CB31468F4B70180E290E03C870E94D4
:101B2000F90DB3943C85F5CFB31410F43B1801C004
:101B3000312C34FF12C0B70180E390E03C870E9453
:101B4000F90D3C8532FF17C031FD03C088E790E0F6
:101B500002C088E590E0B7010CC0832F867859F069
:101B600031FF02C08BE201C080E237FD8DE2B70198
:101B700090E00E94F90DA51438F4B70180E390E0DD
:101B80000E94F90D5A94F7CFAA94F401EA0DF11DC1
:101B90008081B70190E00E94F90DA110F5CF3320AC
:101BA00009F451CEB70180E290E00E94F90D3A9419
:101BB000F6CFF7018681978102C08FEF9FEF2C96B9
:101BC000E2E10C94CA0AFC010590615070400110DA
:101BD000D8F7809590958E0F9F1F0895FC01615056
:101BE000704001900110D8F7809590958E0F9F1F3F
:101BF00008950F931F93CF93DF93FB01238121FD62
:101C000003C08FEF9FEF28C022FF16C04681578187
:101C1000248135814217530744F4A081B1819D018D
:101C20002F5F3F4F318320838C93268137812F5F35
:101C30003F4F3783268310C0EB01092F182F0084F4
:101C4000F185E02D0995892BE1F68E819F81019622
:101C50009F838E83812F902FDF91CF911F910F91C2
:101C60000895FA01AA27283051F1203181F1E89432
:101C70006F936E7F6E5F7F4F8F4F9F4FAF4FB1E07F
:101C80003ED0B4E03CD0670F781F891F9A1FA11D7A
:101C9000680F791F8A1F911DA11D6A0F711D811D7B
:101CA000911DA11D20D009F468943F912AE0269F40
:101CB00011243019305D3193DEF6CF010895462F9F
:101CC0004770405D4193B3E00FD0C9F7F6CF462F80
:101CD0004F70405D4A3318F0495D31FD40524193E9
:101CE00002D0A9F7EACFB4E0A695979587957795A6
:101CF0006795BA95C9F700976105710508959B012D
:101D0000AC010A2E06945795479537952795BA95B5
:101D1000C9F7620F731F841F951FA01D0895F894C3
:021D2000FFCFF3
:101D220000000000C801310160010F0291016F0142
:101D32008301564D4450565F317C315F564D4450BD
:101D4200560D0A0041455F4858373131207465739A
:101D52007400564D4450455F003A323A007C005FB1
:101D6200564D445045002573205B675D202830782E
:061D720025347829000071
:107E0000112484B714BE81FFF0D085E080938100F7
:107E100082E08093C00088E18093C10086E0809377
:107E2000C20080E18093C4008EE0C9D0259A86E02C
:107E300020E33CEF91E0309385002093840096BBD3
:107E4000B09BFECF1D9AA8958150A9F7CC24DD24C4
:107E500088248394B5E0AB2EA1E19A2EF3E0BF2EE7
:107E6000A2D0813461F49FD0082FAFD0023811F036
:107E7000013811F484E001C083E08DD089C08234E0
:107E800011F484E103C0853419F485E0A6D080C0E4
:107E9000853579F488D0E82EFF2485D0082F10E0AE
:107EA000102F00270E291F29000F111F8ED06801E7
:107EB0006FC0863521F484E090D080E0DECF843638
:107EC00009F040C070D06FD0082F6DD080E0C81688
:107ED00080E7D80618F4F601B7BEE895C0E0D1E017
:107EE00062D089930C17E1F7F0E0CF16F0E7DF06D8
:107EF00018F0F601B7BEE89568D007B600FCFDCFD4
:107F0000A601A0E0B1E02C9130E011968C91119780
:107F100090E0982F8827822B932B1296FA010C0160
:107F200087BEE89511244E5F5F4FF1E0A038BF0790
:107F300051F7F601A7BEE89507B600FCFDCF97BE46
:107F4000E89526C08437B1F42ED02DD0F82E2BD052
:107F50003CD0F601EF2C8F010F5F1F4F84911BD097
:107F6000EA94F801C1F70894C11CD11CFA94CF0C13
:107F7000D11C0EC0853739F428D08EE10CD085E9AC
:107F80000AD08FE07ACF813511F488E018D01DD067
:107F900080E101D065CF982F8091C00085FFFCCF94
:107FA0009093C60008958091C00087FFFCCF809118
:107FB000C00084FD01C0A8958091C6000895E0E648
:107FC000F0E098E1908380830895EDDF803219F02E
:107FD00088E0F5DFFFCF84E1DECF1F93182FE3DFCA
:107FE0001150E9F7F2DF1F91089580E0E8DFEE27F6
:047FF000FF270994CA
:027FFE00040479
:0400000300007E007B
:00000001FF